{
  "transactions": [
    {
      "hash": "0xe384bd92dc4dfa989d865ad4e83bcbe891f979d4773984e4913a26782f3cb70a",
      "transactionType": "CALL",
      "contractName": null,
      "contractAddress": "0x3460a7314e82c7f9ac946849c24a23c6ed0f93a4",
      "function": "mint(address,uint256)",
      "arguments": [
        "0xe3d25540BA6CED36a0ED5ce899b99B5963f43d3F",
        "500000000000000000000000"
      ],
      "transaction": {
        "from": "0x6faff29226219756aa40ce648dbc65fb41de5f72",
        "to": "0x3460a7314e82c7f9ac946849c24a23c6ed0f93a4",
        "gas": "0x24918",
        "value": "0x0",
        "input": "0x40c10f19000000000000000000000000e3d25540ba6ced36a0ed5ce899b99b5963f43d3f0000000000000000000000000000000000000000000069e10de76676d0800000",
        "nonce": "0x475",
        "chainId": "0x3e9"
      },
      "additionalContracts": [],
      "isFixedGasLimit": false
    },
    {
      "hash": "0x2ab971d25b47d23728e105461a54b7f37803de21b42be1b4f18fb4bb2774bb56",
      "transactionType": "CALL",
      "contractName": null,
      "contractAddress": "0x3460a7314e82c7f9ac946849c24a23c6ed0f93a4",
      "function": "mint(address,uint256)",
      "arguments": [
        "0x1B7a0b3E366CC0549A96ED4123E8058d59282f3f",
        "500000000000000000000000"
      ],
      "transaction": {
        "from": "0x6faff29226219756aa40ce648dbc65fb41de5f72",
        "to": "0x3460a7314e82c7f9ac946849c24a23c6ed0f93a4",
        "gas": "0x1d538",
        "value": "0x0",
        "input": "0x40c10f190000000000000000000000001b7a0b3e366cc0549a96ed4123e8058d59282f3f0000000000000000000000000000000000000000000069e10de76676d0800000",
        "nonce": "0x476",
        "chainId": "0x3e9"
      },
      "additionalContracts": [],
      "isFixedGasLimit": false
    }
  ],
  "receipts": [
    {
      "status": "0x1",
      "cumulativeGasUsed": "0x12b57",
      "logs": [
        {
          "address": "0x3460a7314e82c7f9ac946849c24a23c6ed0f93a4",
          "topics": [
            "0xddf252ad1be2c89b69c2b068fc378daa952ba7f163c4a11628f55a4df523b3ef",
            "0x0000000000000000000000000000000000000000000000000000000000000000",
            "0x000000000000000000000000e3d25540ba6ced36a0ed5ce899b99b5963f43d3f"
          ],
          "data": "0x0000000000000000000000000000000000000000000069e10de76676d0800000",
          "blockHash": "0x6f15653c741d338c6ed5683052e236eec9c63ef748a28b347540d536edf332f6",
          "blockNumber": "0xa6774b3",
          "transactionHash": "0xe384bd92dc4dfa989d865ad4e83bcbe891f979d4773984e4913a26782f3cb70a",
          "transactionIndex": "0x0",
          "logIndex": "0x0",
          "removed": false
        }
      ],
      "logsBloom": "0x04000000000000000000000000000000000000000000000000000000000000000000000000001000000000000000000000000000000000000000000000000000000000000000000000000008000000000000000000000000000000000000000000000000020000000000000000000800000000000000000000000010000000000000000000000000100000000000000000000000000000000000000000000002000000000000000000000000000000000000040000000000000000000000000000000002000000000000000000000000000000000000000000000000000020000008000000000000000000000000000000000000000000000000000000000000",
      "type": "0x2",
      "transactionHash": "0xe384bd92dc4dfa989d865ad4e83bcbe891f979d4773984e4913a26782f3cb70a",
      "transactionIndex": "0x0",
      "blockHash": "0x6f15653c741d338c6ed5683052e236eec9c63ef748a28b347540d536edf332f6",
      "blockNumber": "0xa6774b3",
      "gasUsed": "0x12b57",
      "effectiveGasPrice": "0x66720b300",
      "from": "0x6faff29226219756aa40ce648dbc65fb41de5f72",
      "to": "0x3460a7314e82c7f9ac946849c24a23c6ed0f93a4",
      "contractAddress": null
    },
    {
      "status": "0x1",
      "cumulativeGasUsed": "0x213e2",
      "logs": [
        {
          "address": "0x3460a7314e82c7f9ac946849c24a23c6ed0f93a4",
          "topics": [
            "0xddf252ad1be2c89b69c2b068fc378daa952ba7f163c4a11628f55a4df523b3ef",
            "0x0000000000000000000000000000000000000000000000000000000000000000",
            "0x0000000000000000000000001b7a0b3e366cc0549a96ed4123e8058d59282f3f"
          ],
          "data": "0x0000000000000000000000000000000000000000000069e10de76676d0800000",
          "blockHash": "0x6f15653c741d338c6ed5683052e236eec9c63ef748a28b347540d536edf332f6",
          "blockNumber": "0xa6774b3",
          "transactionHash": "0x2ab971d25b47d23728e105461a54b7f37803de21b42be1b4f18fb4bb2774bb56",
          "transactionIndex": "0x1",
          "logIndex": "0x1",
          "removed": false
        }
      ],
      "logsBloom": "0x0000000000000000000000000000000000000000000000000000000000000000000000000000100000000000000000000000000000000000000000000000000000000000000000000000000800000000000000000000000000000000000000000000000002000000000000000000080000000000000000000000001000000000000000000000000010000000000000000000800000000000000000000000000000000000000000000000000000000000000000000000000000000000000000000000000200000000000000000000000000000000000000000000000000082000000c000000000000000000000000000000000000000000000000000000000000",
      "type": "0x2",
      "transactionHash": "0x2ab971d25b47d23728e105461a54b7f37803de21b42be1b4f18fb4bb2774bb56",
      "transactionIndex": "0x1",
      "blockHash": "0x6f15653c741d338c6ed5683052e236eec9c63ef748a28b347540d536edf332f6",
      "blockNumber": "0xa6774b3",
      "gasUsed": "0xe88b",
      "effectiveGasPrice": "0x66720b300",
      "from": "0x6faff29226219756aa40ce648dbc65fb41de5f72",
      "to": "0x3460a7314e82c7f9ac946849c24a23c6ed0f93a4",
      "contractAddress": null
    }
  ],
  "libraries": [],
  "pending": [],
  "returns": {},
  "timestamp": 1736134479,
  "chain": 1001,
  "commit": "d3c988e"
}